:1000000000700220FD3700006D0C0000750C000030
:100010007D0C0000850C00008D0C0000000000002D
:10002000000000000000000000000000950C00002F
:100030009D0C000000000000A50C0000AD0C0000AD
:10004000B50C0000C50C0000D50C0000E50C00004C
:10005000F50C0000050D0000150D0000250D000039
:10006000350D0000450D0000550D0000650D000028
:10007000750D0000850D0000950D0000A50D000018
:10008000B50D0000C50D0000D50D0000E50D000008
:10009000F50D0000050E0000150E0000250E0000F5
:1000A000350E0000450E0000550E0000650E0000E4
:1000B000750E0000850E0000950E0000A50E0000D4
:1000C000B50E0000C90E0000DD0E0000F10E0000AC
:1000D000050F0000190F00002D0F0000410F000058
:1000E000550F0000690F00007D0F0000910F000008
:1000F000A50F0000B90F0000CD0F0000E10F0000B8
:10010000F50F0000091000001D1000003110000064
:1001100045100000591000006D1000008110000013
:1001200095100000A9100000BD100000D1100000C3
:10013000E5100000F91000000D1100002111000071
:1001400035110000491100005D110000711100001F
:100150008511000099110000AD110000C1110000CF
:10016000D5110000E9110000FD110000111200007E
:1001700025120000391200004D120000611200002B
:1001800075120000891200009D120000B1120000DB
:10019000C5120000D9120000ED120000011300008A
:1001A00015130000291300003D1300005113000037
:1001B00065130000791300008D130000A1130000E7
:1001C000B5130000C9130000DD130000F113000097
:1001D00005140000191400002D1400004114000043
:1001E00055140000691400007D14000091140000F3
:1001F000A5140000B9140000CD140000E1140000A3
:10020000F5140000091500001D150000311500004F
:1002100045150000591500006D15000081150000FE
:1002200095150000A9150000BD150000D1150000AE
:10023000E5150000F91500000D160000211600005C
:1002400035160000C5170000431B0000391C0000D4
:10025000BD1F00008038000080380000803800009A
:100260004D210000852400002127000055290000B1
:100270006D2A00009D2C0000312F0000713000001D
:10040000FFFFFFFFFFFFFFFFFFFFFFFFFFFFFFFFFC
:10041000FFFFFFFFFFFFFFFFFFFFFFFFFFFFFFFFEC
:10042000254B93F8263003F00703052B42D8DFE86D
:1004300003F003070B101419204B214A1A60704770
:100440001E4B204A1A6070471C4B4FF400421A6042
:1004500070471A4B1B4A1A607047184B4FF4004202
:100460001A607047144AD2F80011D2F80001C0F3A4
:100470000820D2F800311B0FD2F8002102F01F0231
:1004800011F0800F0BD101320E49B1FBF2F200FBEB
:1004900002220133B2FBF3F3084A136070470132C2
:1004A0000749B1FBF2F200FB02220133B2FBF3F386
:1004B000024A1360704700BF004005400080FF1FE4
:1004C0000024F40000127A0008B5FFF7A9FF08BD68
:1004D0002DE9F04FCA4A1168CA4B1960516859603A
:1004E00091689960D168D96012691A61002201246B
:1004F000C34802F180035B0904FA02F1203340F89B
:100500002310BFF34F8FBFF36F8F0132102AF0D14A
:100510000022BD48DFF82493DFF82483DFF824E3CA
:10052000DFF824C3B94FBA4EBA4DBB4C69E0022B79
:1005300000F0CA8118D9032B00F0DB81042B5BD1BA
:10054000B64B1B68002B57D14B0901F01F0A012144
:1005500001FA0AF12033DFF8A8A24AF82310BFF30A
:100560004F8FBFF36F8F47E0002B00F09881012B76
:1005700042D1AB4B1B68002B3ED14B0901F01F0A47
:10058000012101FA0AF12033DFF874A24AF823109E
:10059000BFF34F8FBFF36F8F2EE0062B00F0D38198
:1005A000072B29D19F4B1B6833BB4B0901F01F0A56
:1005B000012101FA0AF12033DFF844A24AF823109E
:1005C000BFF34F8FBFF36F8F16E0522B00F0D9802F
:1005D00060D9B3F5D07F00F0FD8040F2908040F20A
:1005E000B11A534500F03281B3F5D97F00F0438151
:1005F000B3F5D87F00F09C80013212F0800F40F0FC
:100600003582D1B201EB000A4FEA8A0ADAF80030EB
:10061000C3F3080303F1500BCBF3080BBBF1020F3C
:100620000ED903F5E07BCBF3080BBBF1170F00F2FB
:1006300022827D4B23FA0BFB1BF0010F00F022827C
:10064000DAF80030C3F308030C2B00F0D081BCD8DB
:10065000052B00F063817FF66AAF082B00F08881DC
:100660009BD90A2B00F0998100F2AC816F4B1B687B
:10067000002BC1D14B0901F01F0A012101FA0AF137
:100680002033DFF87CA14AF82310BFF34F8FBFF36C
:100690006F8FB1E70F2B00F0D48117D9402B5BD0BF
:1006A000512BA9D1624B1B68002BA5D14B0901F03E
:1006B0001F0A012101FA0AF12033DFF844A14AF8A8
:1006C0002310BFF34F8FBFF36F8F95E70D2B00F013
:1006D000A3810E2B90D1574B1B68002B8CD14B095B
:1006E00001F01F0A012101FA0AF12033DFF810A1FD
:1006F0004AF82310BFF34F8FBFF36F8F7CE7562B61
:1007000054D0572B7FF478AF2368002B7FF474AF5D
:100710004B0901F01F0A012101FA0AF12033DFF829
:10072000E0A04AF82310BFF34F8FBFF36F8F63E74A
:100730003368002B7FF460AF4B0901F01F0A0121E1
:1007400001FA0AF12033DFF8B8A04AF82310BFF30A
:100750004F8FBFF36F8F4FE7374B1B68002B7FF432
:100760004BAF4B0901F01F0A012101FA0AF12033B6
:10077000DFF88CA04AF82310BFF34F8FBFF36F8FC1
:100780003AE7D8F80030002B7FF436AF4B0901F080
:100790001F0A012101FA0AF12033DFF864A04AF8A8
:1007A0002310BFF34F8FBFF36F8F25E72B68002B0C
:1007B0007FF422AF4B0901F01F0A012101FA0AF16F
:1007C0002033DFF83CA04AF82310BFF34F8FBFF36C
:1007D0006F8F11E7DEF80030002B7FF40DAF4B096F
:1007E00001F01F0A012101FA0AF12033DFF810A0FD
:1007F0004AF82310BFF34F8FBFF36F8FFCE600BFA3
:1008000000E100E00882FF1F17440110480AA242DD
:10081000640AA242500AA242400AA242100AA2421C
:10082000040AA2421C0AA2420100C600240AA242F3
:10083000540AA242380AA2425C0AA242300AA242E8
:10084000580AA2424C0AA242440AA242DCF80030F2
:10085000002B7FF4D1AE4B0901F01F0A012101FAF0
:100860000AF12033DFF874A24AF82310BFF34F8F48
:10087000BFF36F8FC0E63B68002B7FF4BDAE4B0922
:1008800001F01F0A012101FA0AF12033DFF84CA21E
:100890004AF82310BFF34F8FBFF36F8FACE6854B41
:1008A0001B68002B7FF4A8AE4B0901F01F0A012141
:1008B00001FA0AF12033DFF824A24AF82310BFF32B
:1008C0004F8FBFF36F8F97E67B4B1B68002B7FF436
:1008D00093AE4B0901F01F0A012101FA0AF12033FE
:1008E000DFF8F8A14AF82310BFF34F8FBFF36F8FE3
:1008F00082E6724B1B68002B7FF47EAE4B0901F041
:100900001F0A012101FA0AF12033DFF8D0A14AF8C9
:100910002310BFF34F8FBFF36F8F6DE6684B1B68DB
:10092000002B7FF469AE4B0901F01F0A012101FA87
:100930000AF12033DFF8A4A14AF82310BFF34F8F48
:10094000BFF36F8F58E65F4B1B68002B7FF454AEEC
:100950004B0901F01F0A012101FA0AF12033DFF8E7
:100960007CA14AF82310BFF34F8FBFF36F8F43E68C
:10097000554B1B68002B7FF43FAE4B0901F01F0A5B
:10098000012101FA0AF12033DFF850A14AF82310BF
:10099000BFF34F8FBFF36F8F2EE64C4B1B68002BBE
:1009A0007FF42AAE4B0901F01F0A012101FA0AF176
:1009B0002033DFF828A14AF82310BFF34F8FBFF38D
:1009C0006F8F19E6424B1B68002B7FF415AE4B0965
:1009D00001F01F0A012101FA0AF12033DFF8FCA01F
:1009E0004AF82310BFF34F8FBFF36F8F04E6D9F897
:1009F0000030002B7FF400AE4B0901F01F0A0121EB
:100A000001FA0AF12033DFF8D4A04AF82310BFF32B
:100A10004F8FBFF36F8FEFE52E4B1B68002B7FF4DA
:100A2000EBAD4B0901F01F0A012101FA0AF1203355
:100A3000DFF8A8A04AF82310BFF34F8FBFF36F8FE2
:100A4000DAE5254B1B68002B7FF4D6AD4B0901F08E
:100A50001F0A012101FA0AF12033DFF880A04AF8C9
:100A60002310BFF34F8FBFF36F8FC5E50020BDE8A4
:100A7000F08F0420FBE7B3F5D07F3FF4E1AD0F2BFF
:100A80007FF6DEADDAF80030C3F3080340F2FF1A58
:100A90005345EED04B0901F01F0A012101FA0AF17A
:100AA0002033DFF838A04AF82310BFF34F8FBFF38D
:100AB0006F8FA1E5000AA242080AA2420C0AA242D4
:100AC000140AA242180AA242200AA242280AA242FA
:100AD0002C0AA242340AA2423C0AA24200E100E0EF
:100AE000064A1168064B196051685960916899600F
:100AF000D168D96012691A61002070470882FF1F0F
:100B000000E100E010B401884B0903EB43035B00F4
:100B1000B0F9022003F12004944202D825339A420E
:100B200002D993B21F2B19D80D4B13449B001A689E
:100B3000C2F3080240F2FF14A24203D007205DF87E
:100B4000044B70471A6861F308021A604168B0F9F3
:100B50000220044B43F822100020F0E70420EEE7C7
:100B6000174401100480FF1F83B27F2B0ED8084B5F
:100B700003449B001A6840F2FF1161F308021A60F7
:100B80000023044A42F8203018467047042070477A
:100B9000174401100480FF1F064B03EB50139B000A
:100BA00000F01F00012202FA00F01A6802431A60E6
:100BB0000020704797440110074B03EB50139B0034
:100BC00000F01F00012202FA00F01A6822EA000277
:100BD0001A600020704700BF9744011010F07D4F4D
:100BE00005D1044A136D1843106500207047042096
:100BF000704700BF0010054010F07D4F06D1044A39
:100C0000136D23EA00001065002070470420704730
:100C100000100540034AD2F8A0321843C2F8A002DF
:100C20000020704700100540044AD2F8A03223EAA1
:100C30000000C2F8A0020020704700BF001005406D
:100C4000034AD2F8A4321843C2F8A4020020704725
:100C500000100540044AD2F8A43223EA0000C2F88A
:100C6000A4020020704700BF0010054008B502F044
:100C700009FD08BD08B5AFF3008008BD08B5AFF3A6
:100C8000008008BD08B5AFF3008008BD08B5AFF31C
:100C9000008008BD08B5AFF3008008BD08B5AFF30C
:100CA000008008BD08B5AFF3008008BD08B5AFF3FC
:100CB000008008BD08B5024B1B6803B1984708BD0A
:100CC0000480FF1F08B5024B5B6803B1984708BD5D
:100CD0000480FF1F08B5024B9B6803B1984708BD0D
:100CE0000480FF1F08B5024BDB6803B1984708BDBD
:100CF0000480FF1F08B5024B1B6903B1984708BD6C
:100D00000480FF1F08B5024B5B6903B1984708BD1B
:100D10000480FF1F08B5024B9B6903B1984708BDCB
:100D20000480FF1F08B5024BDB6903B1984708BD7B
:100D30000480FF1F08B5024B1B6A03B1984708BD2A
:100D40000480FF1F08B5024B5B6A03B1984708BDDA
:100D50000480FF1F08B5024B9B6A03B1984708BD8A
:100D60000480FF1F08B5024BDB6A03B1984708BD3A
:100D70000480FF1F08B5024B1B6B03B1984708BDE9
:100D80000480FF1F08B5024B5B6B03B1984708BD99
:100D90000480FF1F08B5024B9B6B03B1984708BD49
:100DA0000480FF1F08B5024BDB6B03B1984708BDF9
:100DB0000480FF1F08B5024B1B6C03B1984708BDA8
:100DC0000480FF1F08B5024B5B6C03B1984708BD58
:100DD0000480FF1F08B5024B9B6C03B1984708BD08
:100DE0000480FF1F08B5024BDB6C03B1984708BDB8
:100DF0000480FF1F08B5024B1B6D03B1984708BD67
:100E00000480FF1F08B5024B5B6D03B1984708BD16
:100E10000480FF1F08B5024B9B6D03B1984708BDC6
:100E20000480FF1F08B5024BDB6D03B1984708BD76
:100E30000480FF1F08B5024B1B6E03B1984708BD25
:100E40000480FF1F08B5024B5B6E03B1984708BDD5
:100E50000480FF1F08B5024B9B6E03B1984708BD85
:100E60000480FF1F08B5024BDB6E03B1984708BD35
:100E70000480FF1F08B5024B1B6F03B1984708BDE4
:100E80000480FF1F08B5024B5B6F03B1984708BD94
:100E90000480FF1F08B5024B9B6F03B1984708BD44
:100EA0000480FF1F08B5024BDB6F03B1984708BDF4
:100EB0000480FF1F08B5034BD3F8803003B1984777
:100EC00008BD00BF0480FF1F08B5034BD3F8843072
:100ED00003B1984708BD00BF0480FF1F08B5034B4E
:100EE000D3F8883003B1984708BD00BF0480FF1FC6
:100EF00008B5034BD3F88C3003B1984708BD00BF49
:100F00000480FF1F08B5034BD3F8903003B1984716
:100F100008BD00BF0480FF1F08B5034BD3F8943011
:100F200003B1984708BD00BF0480FF1F08B5034BFD
:100F3000D3F8983003B1984708BD00BF0480FF1F65
:100F400008B5034BD3F89C3003B1984708BD00BFE8
:100F50000480FF1F08B5034BD3F8A03003B19847B6
:100F600008BD00BF0480FF1F08B5034BD3F8A430B1
:100F700003B1984708BD00BF0480FF1F08B5034BAD
:100F8000D3F8A83003B1984708BD00BF0480FF1F05
:100F900008B5034BD3F8AC3003B1984708BD00BF88
:100FA0000480FF1F08B5034BD3F8B03003B1984756
:100FB00008BD00BF0480FF1F08B5034BD3F8B43051
:100FC00003B1984708BD00BF0480FF1F08B5034B5D
:100FD000D3F8B83003B1984708BD00BF0480FF1FA5
:100FE00008B5034BD3F8BC3003B1984708BD00BF28
:100FF0000480FF1F08B5034BD3F8C03003B19847F6
:1010000008BD00BF0480FF1F08B5034BD3F8C430F0
:1010100003B1984708BD00BF0480FF1F08B5034B0C
:10102000D3F8C83003B1984708BD00BF0480FF1F44
:1010300008B5034BD3F8CC3003B1984708BD00BFC7
:101040000480FF1F08B5034BD3F8D03003B1984795
:1010500008BD00BF0480FF1F08B5034BD3F8D43090
:1010600003B1984708BD00BF0480FF1F08B5034BBC
:10107000D3F8D83003B1984708BD00BF0480FF1FE4
:1010800008B5034BD3F8DC3003B1984708BD00BF67
:101090000480FF1F08B5034BD3F8E03003B1984735
:1010A00008BD00BF0480FF1F08B5034BD3F8E43030
:1010B00003B1984708BD00BF0480FF1F08B5034B6C
:1010C000D3F8E83003B1984708BD00BF0480FF1F84
:1010D00008B5034BD3F8EC3003B1984708BD00BF07
:1010E0000480FF1F08B5034BD3F8F03003B19847D5
:1010F00008BD00BF0480FF1F08B5034BD3F8F430D0
:1011000003B1984708BD00BF0480FF1F08B5034B1B
:10111000D3F8F83003B1984708BD00BF0480FF1F23
:1011200008B5034BD3F8FC3003B1984708BD00BFA6
:101130000480FF1F08B5034BD3F8003103B1984773
:1011400008BD00BF0480FF1F08B5034BD3F804316E
:1011500003B1984708BD00BF0480FF1F08B5034BCB
:10116000D3F8083103B1984708BD00BF0480FF1FC2
:1011700008B5034BD3F80C3103B1984708BD00BF45
:101180000480FF1F08B5034BD3F8103103B1984713
:1011900008BD00BF0480FF1F08B5034BD3F814310E
:1011A00003B1984708BD00BF0480FF1F08B5034B7B
:1011B000D3F8183103B1984708BD00BF0480FF1F62
:1011C00008B5034BD3F81C3103B1984708BD00BFE5
:1011D0000480FF1F08B5034BD3F8203103B19847B3
:1011E00008BD00BF0480FF1F08B5034BD3F82431AE
:1011F00003B1984708BD00BF0480FF1F08B5034B2B
:10120000D3F8283103B1984708BD00BF0480FF1F01
:1012100008B5034BD3F82C3103B1984708BD00BF84
:101220000480FF1F08B5034BD3F8303103B1984752
:1012300008BD00BF0480FF1F08B5034BD3F834314D
:1012400003B1984708BD00BF0480FF1F08B5034BDA
:10125000D3F8383103B1984708BD00BF0480FF1FA1
:1012600008B5034BD3F83C3103B1984708BD00BF24
:101270000480FF1F08B5034BD3F8403103B19847F2
:1012800008BD00BF0480FF1F08B5034BD3F84431ED
:1012900003B1984708BD00BF0480FF1F08B5034B8A
:1012A000D3F8483103B1984708BD00BF0480FF1F41
:1012B00008B5034BD3F84C3103B1984708BD00BFC4
:1012C0000480FF1F08B5034BD3F8503103B1984792
:1012D00008BD00BF0480FF1F08B5034BD3F854318D
:1012E00003B1984708BD00BF0480FF1F08B5034B3A
:1012F000D3F8583103B1984708BD00BF0480FF1FE1
:1013000008B5034BD3F85C3103B1984708BD00BF63
:101310000480FF1F08B5034BD3F8603103B1984731
:1013200008BD00BF0480FF1F08B5034BD3F864312C
:1013300003B1984708BD00BF0480FF1F08B5034BE9
:10134000D3F8683103B1984708BD00BF0480FF1F80
:1013500008B5034BD3F86C3103B1984708BD00BF03
:101360000480FF1F08B5034BD3F8703103B19847D1
:1013700008BD00BF0480FF1F08B5034BD3F87431CC
:1013800003B1984708BD00BF0480FF1F08B5034B99
:10139000D3F8783103B1984708BD00BF0480FF1F20
:1013A00008B5034BD3F87C3103B1984708BD00BFA3
:1013B0000480FF1F08B5034BD3F8803103B1984771
:1013C00008BD00BF0480FF1F08B5034BD3F884316C
:1013D00003B1984708BD00BF0480FF1F08B5034B49
:1013E000D3F8883103B1984708BD00BF0480FF1FC0
:1013F00008B5034BD3F88C3103B1984708BD00BF43
:101400000480FF1F08B5034BD3F8903103B1984710
:1014100008BD00BF0480FF1F08B5034BD3F894310B
:1014200003B1984708BD00BF0480FF1F08B5034BF8
:10143000D3F8983103B1984708BD00BF0480FF1F5F
:1014400008B5034BD3F89C3103B1984708BD00BFE2
:101450000480FF1F08B5034BD3F8A03103B19847B0
:1014600008BD00BF0480FF1F08B5034BD3F8A431AB
:1014700003B1984708BD00BF0480FF1F08B5034BA8
:10148000D3F8A83103B1984708BD00BF0480FF1FFF
:1014900008B5034BD3F8AC3103B1984708BD00BF82
:1014A0000480FF1F08B5034BD3F8B03103B1984750
:1014B00008BD00BF0480FF1F08B5034BD3F8B4314B
:1014C00003B1984708BD00BF0480FF1F08B5034B58
:1014D000D3F8B83103B1984708BD00BF0480FF1F9F
:1014E00008B5034BD3F8BC3103B1984708BD00BF22
:1014F0000480FF1F08B5034BD3F8C03103B19847F0
:1015000008BD00BF0480FF1F08B5034BD3F8C431EA
:1015100003B1984708BD00BF0480FF1F08B5034B07
:10152000D3F8C83103B1984708BD00BF0480FF1F3E
:1015300008B5034BD3F8CC3103B1984708BD00BFC1
:101540000480FF1F08B5034BD3F8D03103B198478F
:1015500008BD00BF0480FF1F08B5034BD3F8D4318A
:1015600003B1984708BD00BF0480FF1F08B5034BB7
:10157000D3F8D83103B1984708BD00BF0480FF1FDE
:1015800008B5034BD3F8DC3103B1984708BD00BF61
:101590000480FF1F08B5034BD3F8E03103B198472F
:1015A00008BD00BF0480FF1F08B5034BD3F8E4312A
:1015B00003B1984708BD00BF0480FF1F08B5034B67
:1015C000D3F8E83103B1984708BD00BF0480FF1F7E
:1015D00008B5034BD3F8EC3103B1984708BD00BF01
:1015E0000480FF1F08B5034BD3F8F03103B19847CF
:1015F00008BD00BF0480FF1F08B5034BD3F8F431CA
:1016000003B1984708BD00BF0480FF1F08B5034B16
:10161000D3F8F83103B1984708BD00BF0480FF1F1D
:1016200008B5034BD3F8FC3103B1984708BD00BFA0
:101630000480FF1F10B5524BD3F85C42514B1B681E
:10164000012B3CD0504B1B68012B3ED04F4B1B68ED
:10165000012B40D04E4B1B68012B42D04D4B1B68D9
:10166000012B44D04C4B1B68012B46D04B4B1B68C5
:10167000012B48D04A4B1B68012B4AD0494B1B68B1
:10168000012B4CD0484B1B68012B4ED0474B1B689D
:10169000012B50D0464B1B68012B52D0454B1B6889
:1016A000012B54D0444B1B68012B56D0434B1B6875
:1016B000012B58D0424B1B68012B5AD010BD14F09F
:1016C000010FBFD0AFF30080BCE714F0020FBDD014
:1016D000AFF30080BAE714F0040FBBD0AFF3008083
:1016E000B8E714F0080FB9D0AFF30080B6E714F0F4
:1016F000100FB7D0AFF30080B4E714F0200FB5D0CF
:10170000AFF30080B2E714F0400FB3D0AFF3008026
:10171000B0E714F0800FB1D0AFF30080AEE714F45F
:10172000807FAFD0AFF30080ACE714F4007FADD082
:10173000AFF30080AAE714F4806FABD0AFF3008062
:10174000A8E714F4006FA9D0AFF30080A6E714F463
:10175000805FA7D0AFF30080A4E714F4005FA5D0AA
:10176000AFF30080A2E714F4804FA3D0AFF3008062
:10177000A0E714F4004FA1D0AFF300809EE700BFB4
:1017800000100540800AA242840AA242880AA242AE
:101790008C0AA242900AA242940AA242980AA24249
:1017A0009C0AA242A00AA242A40AA242A80AA242F9
:1017B000AC0AA242B00AA242B40AA242B80AA242A9
:1017C000BC0AA24210B5A84BD3F8604203F12873BB
:1017D00003F572431B6823B9A44B1B68012B00F06F
:1017E000C980A34B1B6823B9A24B1B68012B00F0D7
:1017F000C880A14B1B6823B9A04B1B68012B00F0CC
:10180000C7809F4B1B6823B99E4B1B68012B00F0C0
:10181000C6809D4B1B6823B99C4B1B68012B00F0B5
:10182000C5809B4B1B6823B99A4B1B68012B00F0AA
:10183000C480994B1B6823B9984B1B68012B00F09F
:10184000C380974B1B6823B9964B1B68012B00F094
:10185000C280954B1B6823B9944B1B68012B00F089
:10186000C180934B1B6823B9924B1B68012B00F07E
:10187000C080914B1B6823B9904B1B68012B00F073
:10188000BF808F4B1B6823B98E4B1B68012B00F068
:10189000BE808D4B1B6823B98C4B1B68012B00F05D
:1018A000BD808B4B1B6823B9824B1B68012B00F05A
:1018B000BC80884B1B6823B9804B1B68012B00F050
:1018C000BB80854B1B6823B97E4B1B68012B00F046
:1018D000BA80824B5A68DB681A4203D014F4803F06
:1018E00040F0B8807E4B5A68DB681A4203D014F48B
:1018F000003F40F0B2807B4B1B6913F00F0F03D009
:1019000014F4802F40F0AC80774B1B68012B00F063
:10191000F780764B1B68012B00F0F9804FF01C43D9
:10192000DB6813F0800F40F0F980714B9A695B68B7
:101930001A4203D014F4000F40F0F7806D4B9A69FF
:101940005B681A4203D014F0807F40F0F1806A4B4C
:101950009A695B681A4203D014F0007F40F0EB8074
:10196000664B9A695B681A4203D014F0806F40F0AE
:10197000E58010BD14F0010F3FF433AFAFF30080EA
:101980002FE714F0020F3FF434AFAFF3008030E7DD
:1019900014F0040F3FF435AFAFF3008031E714F0DB
:1019A000080F3FF436AFAFF3008032E714F0100FAA
:1019B0003FF437AFAFF3008033E714F0200F3FF46C
:1019C00038AFAFF3008034E714F0400F3FF439AF85
:1019D000AFF3008035E714F0800F3FF43AAFAFF378
:1019E000008036E714F4807F3FF43BAFAFF3008014
:1019F00037E714F4007F3FF43CAFAFF3008038E7E3
:101A000014F4806F3FF43DAFAFF3008039E714F476
:101A1000006F3FF43EAFAFF300803AE714F4805F0D
:101A20003FF43FAFAFF300803BE714F4005F3FF4B7
:101A300040AFAFF300803CE714F4804F3FF441AF78
:101A4000AFF300803DE714F4004F3FF442AFAFF333
:101A500000803EE7AFF3008044E7AFF300804AE741
:101A6000AFF3008050E700BF001005400001A64220
:101A70000402A6420401A6420802A6420801A642A8
:101A80000C02A6420C01A6420082A6420081A64298
:101A90000482A6420481A6420882A6420881A64288
:101AA0000C82A6420C81A6424002A6424001A642F8
:101AB0004402A6424401A6424802A6424801A64268
:101AC0004C02A6424C01A6424082A6424081A64258
:101AD0004482A6424882A6424C82A642003005407B
:101AE000003405400004014014822042108220424C
:101AF000002005400024054000280540002C05403A
:101B000014F4002F3FF405AFAFF3008001E714F4A5
:101B1000801F3FF403AFAFF30080FFE614F4800FA3
:101B20003FF403AFAFF30080FFE6AFF3008005E7BB
:101B3000AFF300800BE7AFF3008011E7AFF3008055
:101B400017E710B52F4BD3F864422F4B1B68012BBE
:101B50001CD02E4B1B68012B22D02D4B1B68012B58
:101B600028D02C4B1B68012B2ED02B4B1B68012B34
:101B700034D02A4B1B68012B3AD0294B5B6813F4F5
:101B8000403F02D014F4000F38D110BD254B1B6824
:101B9000012BDED114F0010FDBD0AFF30080D8E7CA
:101BA000214B1B68012BD8D114F0020FD5D0AFF315
:101BB0000080D2E71D4B1B68012BD2D114F0040F1B
:101BC000CFD0AFF30080CCE7194B1B68012BCCD1F1
:101BD00014F0080FC9D0AFF30080C6E7154B1B689F
:101BE000012BC6D114F4001FC3D0AFF30080C0E7AF
:101BF00014F4800FC1D0AFF30080BEE7AFF30080D4
:101C0000C3E700BF001005400802484248024842AE
:101C100008824842488248420008A84230809842E0
:101C20000094044080024842C002484280824842F8
:101C3000C08248422008A84210B5B94BD3F8684288
:101C4000B84B1B68012B00F08680B74B1B68012B3B
:101C500000F08D80B54B1B68012B00F09480B44BD5
:101C60001B68012B00F09B80B24B1B68012B00F01E
:101C7000A280B14B1B68012B00F0A980AF4B1B6801
:101C8000012B00F0B080AE4B1B68012B00F0B78039
:101C9000AC4B1B68012B00F0BE80AB4A516D136F3B
:101CA00003EAD11313F4C06F03D014F4006F40F0B3
:101CB000BE80A54A516D136F03EAD11313F4C05FC0
:101CC00003D014F4805F40F0B580A04B1B68012B5B
:101CD00000F0B3809E4B1B68012B00F0BA809D4B37
:101CE0001B68012B00F0C1809B4B1B68012B00F08F
:101CF000C8809A4B1B68012B00F0CF80984B1B6863
:101D0000012B00F0D680974B1B68012B00F0DD8083
:101D1000954B1B68012B00F0E480944B1B68012B52
:101D200000F0EB80924A516D136F03EAD11313F464
:101D3000C06F03D014F0006F40F0EB808C4A516DFF
:101D4000136F03EAD11313F4C05F03D014F0805F64
:101D500040F0E28010BD874B1B68012B7FF475AF0C
:101D600014F0010F3FF471AFAFF300806DE7824BC9
:101D70001B68012B7FF46EAF14F0020F3FF46AAFC3
:101D8000AFF3008066E77D4B1B68012B7FF467AFE4
:101D900014F0040F3FF463AFAFF300805FE7784BBC
:101DA0001B68012B7FF460AF14F0080F3FF45CAFA9
:101DB000AFF3008058E7734B1B68012B7FF459AFDA
:101DC00014F0100F3FF455AFAFF3008051E76E4BA6
:101DD0001B68012B7FF452AF14F0200F3FF44EAF7D
:101DE000AFF300804AE7694B1B68012B7FF44BAFD0
:101DF00014F0400F3FF447AFAFF3008043E7644B6C
:101E00001B68012B7FF444AF14F0800F3FF440AF08
:101E1000AFF300803CE75F4B1B68012B7FF43DAFC5
:101E200014F4807F3FF439AFAFF3008035E7AFF3B0
:101E300000803EE7AFF3008047E7574B1B68012B5C
:101E40007FF448AF14F4803F3FF444AFAFF3008019
:101E500040E7524B1B68012B7FF441AF14F4003F65
:101E60003FF43DAFAFF3008039E74D4B1B68012BCA
:101E70007FF43AAF14F4802F3FF436AFAFF3008015
:101E800032E7484B1B68012B7FF433AF14F4002F6B
:101E90003FF42FAFAFF300802BE7434B1B68012BC0
:101EA0007FF42CAF14F4801F3FF428AFAFF3008011
:101EB00024E73E4B1B68012B7FF425AF14F4001F71
:101EC0003FF421AFAFF300801DE7394B1B68012BB6
:101ED0007FF41EAF14F4800F3FF41AAFAFF300800D
:101EE00016E7344B1B68012B7FF417AF14F4000F77
:101EF0003FF413AFAFF300800FE72F4B1B68012BAC
:101F00007FF410AF14F0807F3FF40CAFAFF300808C
:101F100008E7AFF3008011E7AFF300801AE700BFD6
:101F200000100540800A3042840A3042880A30425C
:101F30008C0A3042900A3042940A3042980A304269
:101F40009C0A3042A00A304200800140808A304220
:101F5000848A3042888A30428C8A3042908A304269
:101F6000948A3042988A30429C8A3042A08A304219
:101F700000840140000E3042040E3042080E304210
:101F80000C0E3042100E3042140E3042180E304209
:101F90001C0E3042200E3042008E3042048E304201
:101FA000088E30420C8E3042108E3042148E3042F9
:101FB000188E30421C8E3042208E304210B54F4B6E
:101FC000D3F86C424E4B1B68012B36D04D4B1B682F
:101FD000012B3CD04C4B1B68012B42D04B4B1B6858
:101FE000012B48D04A4B1B68012B4ED0494B1B6834
:101FF000012B54D0484B1B68012B5AD0474B1B6810
:10200000012B60D0464B1B68012B66D0454A516DB1
:10201000136F03EAD11313F4C06F02D014F4006FEE
:1020200065D1404A516D136F03EAD11313F4C05FB9
:1020300002D014F4805F5DD110BD3B4B1B68012BB7
:10204000C4D114F0010FC1D0AFF30080BEE7374B0D
:102050001B68012BBED114F0020FBBD0AFF3008080
:10206000B8E7334B1B68012BB8D114F0040FB5D07F
:10207000AFF30080B2E72F4B1B68012BB2D114F0F5
:10208000080FAFD0AFF30080ACE72B4B1B68012BE0
:10209000ACD114F0100FA9D0AFF30080A6E7274B06
:1020A0001B68012BA6D114F0200FA3D0AFF3008042
:1020B000A0E7234B1B68012BA0D114F0400F9DD04B
:1020C000AFF300809AE71F4B1B68012B9AD114F0E5
:1020D000800F97D0AFF3008094E71B4B1B68012B58
:1020E00094D114F4807F91D0AFF300808EE7AFF3EA
:1020F000008096E7AFF300809EE700BF0010054028
:10210000800A3142840A3142880A31428C0A3142C3
:10211000900A3142940A3142980A31429C0A314273
:10212000A00A314200880140000E3142040E3142C3
:10213000080E31420C0E3142100E3142140E314263
:10214000180E31421C0E3142200E314270B5C14B87
:10215000D3F87C42A3F57033D3F8805005F4A04344
:10216000B3F5A04F00F0E28005F42045B5F5204F0F
:1021700000F0E380B84BD3F89020D3F89C301A429B
:1021800003D014F0040F40F0DF80B44BD3F880503C
:1021900005F4A043B3F5A04F00F0D98005F4204525
:1021A000B5F5204F00F0DA80AC4BD3F89020D3F88F
:1021B0009C301A4203D014F0200F40F0D680A84B78
:1021C000D3F8805005F4A043B3F5A04F00F0D080C1
:1021D00005F42045B5F5204F00F0D180A04BD3F891
:1021E0009020D3F89C301A4203D014F4807F40F042
:1021F000CD809C4BD3F8805005F4A043B3F5A04F9D
:1022000000F0C78005F42045B5F5204F00F0C880E8
:10221000944BD3F89020D3F89C301A4203D014F496
:10222000006F40F0C480904BD3F8805005F4A04379
:10223000B3F5A04F00F0BE8005F42045B5F5204F62
:1022400000F0BF80884BD3F89020D3F89C301A421E
:1022500003D014F4804F40F0BB80844BD3F88050FF
:1022600005F4A043B3F5A04F00F0B58005F4204578
:10227000B5F5204F00F0B6807C4BD3F89020D3F812
:102280009C301A4203D014F4802F40F0B280784B77
:102290001B68012B00F0B080764B1E68DD6815F0DE
:1022A000200F06D016F00B0F03D014F4800F40F06F
:1022B000B3802E420BD014F4000F40F0B08014F025
:1022C000807F40F0AF8014F0007F40F0AE8015F0CA
:1022D000020F06D016F4807F03D014F0806F40F018
:1022E000A780654B1E68DD6815F0200F06D016F03C
:1022F0000B0F03D014F0006F40F09D802E420BD0E6
:1023000014F0805F40F09A8014F0005F40F09980F4
:1023100014F0804F40F0988015F0020F05D016F4AD
:10232000807F02D0002CC0F2928070BD14F0010FAB
:102330003FF41AAFAFF3008016E714F0020F3FF43A
:1023400019AFAFF3008015E7AFF300801DE714F07D
:10235000080F3FF423AFAFF300801FE714F0100F16
:102360003FF422AFAFF300801EE7AFF3008026E713
:1023700014F0400F3FF42CAFAFF3008028E714F0C7
:10238000800F3FF42BAFAFF3008027E7AFF300805F
:102390002FE714F4007F3FF435AFAFF3008031E74F
:1023A00014F4806F3FF434AFAFF3008030E7AFF345
:1023B000008038E714F4805F3FF43EAFAFF3008055
:1023C0003AE714F4005F3FF43DAFAFF3008039E724
:1023D000AFF3008041E714F4803F3FF447AFAFF321
:1023E000008043E714F4003F3FF446AFAFF30080B2
:1023F00042E7AFF300804AE7204B9A695B691A40D5
:102400001F4B1340002B3FF447AF14F4002F3FF451
:1024100043AFAFF300803FE7AFF3008049E7AFF38E
:1024200000804CE7AFF300804DE7AFF300804EE74C
:10243000AFF3008055E7AFF300805FE7AFF30080B4
:1024400062E7AFF3008063E7AFF3008064E7AFF3C8
:1024500000806AE700100540005001400054014030
:1024600000580140005C01400060014000640140F0
:102470000001804300D0014000D4014000000C4026
:10248000FBFC7CF770B5A04BD3F88042A3F540333A
:102490001E68DD6815F0200F06D016F00B0F03D074
:1024A00014F0010F40F0E2802E420BD014F0020F26
:1024B00040F0DF8014F0040F40F0DE8014F0080FCD
:1024C00040F0DD8015F0020F06D016F4807F03D0B7
:1024D00014F0100F40F0D6808C4B1E68DD6815F0AC
:1024E000200F06D016F00B0F03D014F0200F40F091
:1024F000CC802E420BD014F0400F40F0C98014F075
:10250000800F40F0C88014F4807F40F0C78015F041
:10251000020F06D016F4807F03D014F4007F40F041
:10252000C0807B4B5D685E6915F4806F06D016F045
:10253000800F03D014F4006F40F0B68015F4007FD4
:1025400006D016F0200F03D014F4805F40F0AF8067
:1025500015F4006F06D016F0010F03D114F4005FDC
:1025600040F0A88015F4807F06D016F01D0F03D030
:1025700014F4804F40F0A180664B5D685E6915F4ED
:10258000806F06D016F0800F03D014F4803F40F027
:10259000978015F4007F06D016F0200F03D014F4B6
:1025A000003F40F0908015F4006F06D016F0010F48
:1025B00003D114F4802F40F0898015F4807F06D079
:1025C00016F01D0F03D014F4002F40F08280524B00
:1025D0005D685E6915F4806F05D016F0800F02D03B
:1025E00014F4001F78D115F4007F05D016F0200FE9
:1025F00002D014F4800F72D115F4006F05D016F0DC
:10260000010F02D114F4000F6CD115F4807F05D0B6
:1026100016F01D0F02D014F0807F66D13F4B5D682D
:102620005E6915F4806F05D016F0800F02D014F0AB
:10263000806F5DD115F4007F05D016F0200F02D019
:1026400014F0006F57D115F4006F05D016F0010F8C
:1026500002D114F0805F51D115F4807F05D016F0BF
:102660001D0F02D014F0005F4BD170BDAFF300809E
:102670001AE7AFF300801DE7AFF300801EE7AFF36A
:1026800000801FE7AFF3008026E7AFF3008030E75C
:10269000AFF3008033E7AFF3008034E7AFF300809F
:1026A00035E7AFF300803CE7AFF3008046E7AFF3D8
:1026B00000804DE7AFF3008054E7AFF300805BE7A5
:1026C000AFF3008065E7AFF300806CE7AFF3008005
:1026D00073E7AFF300807AE7AFF3008083E7AFF3EF
:1026E000008089E7AFF300808FE7AFF3008095E7C4
:1026F000AFF300809EE7AFF30080A4E7AFF3008064
:10270000AAE7AFF30080B0E70010054000140240D4
:1027100000C0014000C4014000000240000402402B
:1027200038B5894BD3F88442A3F568331D8BADB21D
:1027300014F0010F04D005F05003502B00F0C280BC
:1027400014F0020F04D005F0A005A02D00F0BD800C
:102750007E4B9D8BADB214F0040F04D005F05003F6
:10276000502B00F0B58014F0080F04D005F0A00540
:10277000A02D00F0B080754B1D8CADB214F0100F81
:1027800004D005F05003502B00F0A88014F0200F67
:1027900004D005F0A005A02D00F0A3806B4BB3F88A
:1027A0004850ADB214F0400F05D005F44073B3F5B6
:1027B000407F00F0998014F0800F05D005F4C045EB
:1027C000B5F5C04F00F09380604BB3F8A450ADB2A4
:1027D00014F4807F04D005F01103112B00F08A80DF
:1027E00014F4007F05D005F48173B3F5817F00F008
:1027F000848014F4806F03D041F20403AB437FD094
:10280000534B1D8BADB214F4803F03D005F0500341
:10281000502B78D014F4003F03D005F0A005A02D74
:1028200074D04B4B9D8BADB214F4802F03D005F0C8
:102830005003502B6DD014F4002F03D005F0A005E9
:10284000A02D69D0424B1D8CADB214F4801F03D073
:1028500005F05003502B62D014F4001F03D005F094
:10286000A005A02D5ED03A4BB3F84850ADB214F499
:10287000800F04D005F44073B3F5407F55D014F4B5
:10288000000F04D005F4C045B5F5C04F50D0304B13
:10289000B3F8A450ADB214F0807F03D005F011035B
:1028A000112B48D014F0007F04D005F48173B3F5E8
:1028B000817F43D014F0806F03D041F20403AB4317
:1028C0003FD038BDAFF300803AE7AFF300803FE779
:1028D000AFF3008047E7AFF300804CE7AFF3008031
:1028E00054E7AFF3008059E7AFF3008063E7AFF33D
:1028F000008069E7AFF3008072E7AFF3008078E70C
:10290000AFF300807CE7AFF3008083E7AFF3008094
:1029100087E7AFF300808EE7AFF3008092E7AFF375
:10292000008099E7AFF300809DE7AFF30080A6E752
:10293000AFF30080ABE7AFF30080B3E7AFF3008005
:10294000B8E7AFF30080BCE700100540007001401D
:102950000048024038B5434BD3F88842A3F53133E1
:102960001D8BADB214F0010F03D005F05003502BB6
:1029700057D014F0020F03D005F0A005A02D53D0BE
:10298000394B9D8BADB214F0040F03D005F050030A
:10299000502B4CD014F0080F03D005F0A005A02D4B
:1029A00048D0314B1D8CADB214F0100F03D005F0A0
:1029B0005003502B41D014F0200F03D005F0A00598
:1029C000A02D3DD0284BB3F84850ADB214F0400FC5
:1029D00004D005F44073B3F5407F34D014F0800F79
:1029E00004D005F4C045B5F5C04F2FD01E4BB3F849
:1029F000A450ADB214F4807F03D005F01103112B65
:102A000027D014F4007F04D005F48173B3F5817FDF
:102A100022D014F4806F03D041F20403AB431ED0E4
:102A200038BDAFF30080A4E7AFF30080A8E7AFF3B1
:102A30000080AFE7AFF30080B3E7AFF30080BAE701
:102A4000AFF30080BEE7AFF30080C7E7AFF30080CD
:102A5000CCE7AFF30080D4E7AFF30080D9E7AFF362
:102A60000080DDE700100540004C024010B56F4BC0
:102A7000D3F88C42A3F56533DA685B691A4202D059
:102A800014F0400F48D16A4BDA685B691A4202D0F1
:102A900014F0800F43D1674BDA685B691A4202D0A9
:102AA00014F4807F3ED1644BDA685B691A4202D02D
:102AB00014F4007F39D1614B1B68012B38D0604B77
:102AC0001B68012B3ED05F4B1B68012B44D05E4B33
:102AD0001B68012B4BD05D4B1B68012B51D05C4B0D
:102AE0001B68012B57D05B4B1B68012B5ED05A4BE8
:102AF0001B68012B64D0594B1B68012B6AD0584BC3
:102B00001B68012B71D0574B1B68012B77D0564B9C
:102B10001B68012B7DD010BDAFF30080B3E7AFF38E
:102B20000080B8E7AFF30080BDE7AFF30080C2E7F5
:102B30004E4B1B68012BC2D114F4803FBFD0AFF3C2
:102B40000080BCE74A4B1B68012BBCD114F4003F4A
:102B5000B9D0AFF30080B6E7464B9B6813F0030F84
:102B6000B5D014F4802FB2D0AFF30080AFE7424B62
:102B70001B68012BAFD114F4002FACD0AFF3008051
:102B8000A9E73E4B1B68012BA9D114F4801FA6D0E6
:102B9000AFF30080A3E73A4B9B6813F0030FA2D07A
:102BA00014F4001F9FD0AFF300809CE7354B1B68E7
:102BB000012B9CD114F4800F99D0AFF3008096E7DD
:102BC000314B1B68012B96D114F4000F93D0AFF357
:102BD000008090E72D4B9B6813F0030F8FD014F00B
:102BE000807F8CD0AFF3008089E7294B1B68012BD5
:102BF00089D114F0007F86D0AFF3008083E7254BA6
:102C00001B68012B83D114F0806F80D0AFF300805C
:102C10007DE7214B9B6813F0030F3FF47CAF14F06A
:102C2000006F3FF478AFAFF3008074E70010054009
:102C3000207C0140407C0140607C014004003C421B
:102C40000C003C4210003C4204803C420C803C4260
:102C500010803C42040044420C00444210004442B4
:102C6000048044420C8044421080444280003C4234
:102C700084003C4200E0014080803C4284803C4231
:102C800000E40140800044428400444200200240AD
:102C900080804442848044420024024010B5844B2A
:102CA000D3F89042834B1B68012B63D0824B1B6887
:102CB000012B69D0814B1B68012B6FD0804B5A6868
:102CC000DB691A407F4B134013B114F0800F6FD1B2
:102CD0007D4B1B68012B6ED07C4B1B68012B74D085
:102CE0007B4B1B68012B7AD07A4B5A68DB691A4000
:102CF000744B134013B114F4006F7BD1764B1B68F7
:102D0000012B7AD0754B1B68012B00F08180744B2E
:102D10001B68012B00F08880724B5A68DB691A40EF
:102D2000684B13401BB114F4004F40F089806E4B88
:102D30001B68012B00F087806C4B1B68012B00F097
:102D400089806B4B1B68012B00F08B80694B1B68E3
:102D5000012B00F09280684B1B68012B00F09980DA
:102D6000664B5B6813F4403F03D014F4000F40F04F
:102D70009C8010BD624B1B68012B97D114F0100F83
:102D800094D0AFF3008091E75E4B1B68012B91D18B
:102D900014F0200F8ED0AFF300808BE75A4B1B68E6
:102DA000012B8BD114F0400F88D0AFF3008085E762
:102DB000AFF300808CE7554B1B68012B8CD114F4CA
:102DC000807F89D0AFF3008086E7514B1B68012BD1
:102DD00086D114F4007F83D0AFF3008080E74D4BA1
:102DE0001B68012B80D114F4806F3FF47DAFAFF3EB
:102DF000008079E7AFF3008080E7474B1B68012B29
:102E000080D114F4805F3FF47DAFAFF3008079E7A9
:102E1000424B1B68012B7FF47AAF14F4005F3FF440
:102E200076AFAFF3008072E73D4B1B68012B7FF458
:102E300073AF14F4804F3FF46FAFAFF300806BE7D4
:102E4000AFF3008073E714F4003F3FF475AFAFF3C6
:102E5000008071E714F4802F3FF473AFAFF300806C
:102E60006FE7304B1B68012B7FF470AF14F4801FA9
:102E70003FF46CAFAFF3008068E72B4B1B68012B6E
:102E80007FF469AF14F4001F3FF465AFAFF3008027
:102E900061E7264B1B68012B7FF462AF14F4800FAF
:102EA0003FF45EAFAFF300805AE7AFF3008060E716
:102EB0000010054098009C428C009C429C009C4263
:102EC00000E004401752F00098809C428C809C42A5
:102ED0009C809C4200E4044098009D428C009D42EE
:102EE0009C009D4200E80440241CA842341CA842D7
:102EF00000839042048390420883904200900440F3
:102F000098039C428C039C429C039C4298839C4265
:102F10008C839C429C839C4298039D428C039D42DF
:102F20009C039D4280839042848390428883904298
:102F300038B5414BD3F89442404B1B68012B20D04D
:102F40003F4B1B68012B26D03E4BB3F8B0309DB2EF
:102F50003D4B1B68012B28D03B4B1B68012B30D00D
:102F60003A4B1B68012B38D0394B1B68012B3ED0E4
:102F7000384B1B68012B44D0364B1B68012B4DD0BE
:102F800038BD354B1B68012BDAD114F0010FD7D0B7
:102F9000AFF30080D4E7314B1B68012BD4D114F080
:102FA000020FD1D0AFF30080CEE72D4B1B68012B71
:102FB00001D0002DD0D014F0040FCDD0AFF300809D
:102FC000CAE7274B1B68012B01D0002DC8D014F095
:102FD000080FC5D0AFF30080C2E7224B1B68012B5E
:102FE000C2D114F0100FBFD0AFF30080BCE71E4B6E
:102FF0001B68012BBCD114F0200FB9D0AFF30080B7
:10300000B6E71A4BB3F8B030C3F30803002BB3D0C4
:1030100014F0400FB0D0AFF30080ADE7134BB3F81E
:10302000B030C3F30803002BAAD014F0800FA7D050
:10303000AFF30080A4E700BF00100540E008804225
:10304000E40880420000044020148042E08880426E
:10305000E488804220948042C0088042C4088042B4
:1030600040168042C0888042C488804200040440E8
:1030700008B5274B1B68012B08D0264B1B68012B7A
:1030800010D0254B1B68012B18D008BD234B188E80
:103090001A8F598E5B8F02400B401343EDD0AFF374
:1030A0000080EAE71E4B188E1A8F598E5B8F024004
:1030B0000B401343E5D0AFF30080E2E7194B93F8E0
:1030C000A50093F8A42093F8A610C9B293F8BF30D6
:1030D000DBB2024003F02000024315D101F00302ED
:1030E000032A11D001F00C020C2A0DD001F030019E
:1030F000302909D003F01802182A05D013F0400F28
:10310000C3D013F0800FC0D0AFF30080BDE700BF85
:103110000853A2421453A2421853A24200FC064094
:103120000000074000040740F0B4364B4AF2015457
:10313000A3F8FC43344B034498010023861C0FE0A2
:10314000055B6FF3CF350553055B6FF34105055301
:10315000D779355B67F3082535530133102B49D0F8
:1031600021FA03F414F0010FF7D09C00577830F8DF
:10317000235067F38E3520F82350977830F823508A
:1031800067F30C3520F82350D77830F8235067F3D5
:10319000492520F82350177930F8235067F3861516
:1031A00020F82350977930F8235067F3820520F8F0
:1031B0002350577930F8235067F3051520F8235032
:1031C0001578012D09D06FB2002FB9D0022DBFD1D3
:1031D000055B45F400450553BAE730F823506FF31B
:1031E000CF3520F8235030F8235045F0020520F861
:1031F0002350ADE7034B4FF42542A3F8FC230020F6
:10320000F0BC704700380540F01400012DE9F04F84
:10321000264B4AF20152A3F8FC23DFF89CE0244F2E
:103220004FF0000CDFF894B06146DFF894A0DFF8AF
:103230009490DFF894801F4E18E0042B26D01518C8
:10324000A95311800F2B21D80133DBB20432052C96
:10325000F3D01518A95311800F2BF5D90CF1010CDF
:1032600010370EF1400EBCF1060F0FD027F80B10EF
:1032700027F80A1027F8091027F80810A7EB0C10F8
:103280008000724601235FFA8CF4E0E7074B0020D0
:10329000A3F8F803A3F8FA031F22A3F8F4234FF4CA
:1032A0002542A3F8FC23BDE8F08F00BF003805409D
:1032B000004F0110FEC3FABF023C054004E9033091
:1032C00006E9033008E903300AE903300F4B4AF2FC
:1032D0000152A3F8FC2301290FD00C4AB2F8F433B1
:1032E00000F01F0023EA0000A2F8F403074B4FF49C
:1032F0002542A3F8FC2300207047B3F8F42300F024
:103300001F001043A3F8F403F0E700BF00380540A6
:103310000C4B4AF20152A3F8FC230178B3F8F823CE
:1033200061F30302A3F8F8234178B3F8F82361F3BB
:103330008F32A3F8F8234FF42542A3F8FC23002092
:10334000704700BF00380540024B4AF20152A3F813
:10335000FC23704700380540024B4FF42542A3F888
:10336000FC23704700380540000100F1804000F563
:10337000A72000887047000100F1804000F5A720D9
:103380000368194214BF0120002070470001034A5E
:103390008358194381500020704700BF043805400E
:1033A0000001044AC94389B283580B40835000206E
:1033B000704700BF0438054010B40001064C0319E3
:1033C000012A1B680FBF1943C94389B21940015133
:1033D00000205DF8044B7047063805400001034AA1
:1033E0008358194381500020704700BF08380540BA
:1033F0000001034A8358194381500020704700BFE1
:103400000A3805400001034A8358194381500020BF
:10341000704700BF0C380540114B4AF20152A3F827
:10342000FC23012911D00E4AB2F8FA13012383407C
:1034300003F01F0321EA0303A2F8FA33084B4FF409
:103440002542A3F8FC23002070471946B3F8FA334D
:10345000012282401A4392B2A1F8FA23EEE700BF9C
:1034600000380540F0B4164C4AF20155A4F8FC535C
:1034700000240126134D05EB801002F03F0202E00C
:103480000134102C14D006FA04F52942F8D030F893
:10349000245062F3050520F82450012B14BF0027A7
:1034A000012730F8245067F3082520F82450E7E777
:1034B000034B4FF42542A3F8FC230020F0BC7047D7
:1034C00000380540023C0540084B4AF20152A3F87F
:1034D000FC23B3F8F82360F30302A3F8F8234FF4B6
:1034E0002542A3F8FC230020704700BF00380540A8
:1034F00082B0002301930A4B19680A4BA3FB0131E8
:10350000490B0138B0F1FF3F06D00191019B5A1ED3
:103510000192002BFAD1F4E7002002B0704700BFFF
:103520000080FF1F5917B7D102780A4B13449B0044
:1035300041781A6861F3C7121A6081781A6861F3DA
:1035400005121A60C1781A6861F301021A6000203E
:10355000704700BF04440110034B5B6D23FA00F079
:1035600000F00100704700BF00100540044A916D53
:10357000012303FA00F0084390650020704700BF64
:103580000010054082680B4B1A6001780A4B1A68DC
:1035900061F3C7121A6041781A6861F305121A6064
:1035A00081781A6861F300021A6082885A600020EC
:1035B000704700BF0482FF1F001005400020034B2E
:1035C0001860034B18605860986070470482FF1FB2
:1035D0000010054020283CD00ED9B0F5007F3DD02A
:1035E00021D9B0F5806F3ED0B0F5006F25D1204BCA
:1035F0009868C0F3C0207047022820D008D904285A
:1036000022D008280DD11A4B9868C0F3C00070472B
:10361000012804D1164B986800F001007047002083
:10362000704700207047B0F5807F04D1104B986838
:10363000C0F30020704700207047002070470C4BFB
:103640009868C0F340007047094B9868C0F3800049
:103650007047074B9868C0F340107047044B986858
:10366000C0F340207047024B9868C0F38020704739
:1036700000100540024AD3681843D060002070470C
:103680000010054008B5024B1B68984708BD00BFF5
:103690000482FF1F034AD2F89C321843C2F89C02EE
:1036A0000020704700100540044AD2F89C3223EAFB
:1036B0000000C2F89C020020704700BF00100540C7
:1036C00080B582B04C4B6C4693E8030084E803005D
:1036D000224640210420FFF727FD224680210020BA
:1036E000FFF722FD224620210120FFF71DFD224683
:1036F0004FF400710120FFF717FD4FF040094FF024
:1037000004084FF4FA76802701257D244946404677
:10371000FFF778FE3046FFF7EBFE39460020FFF753
:1037200071FE3046FFF7E4FE20212846FFF76AFECF
:103730003046FFF7DDFE4FF400712846FFF762FECA
:103740003046FFF7D5FE49464046FFF75BFE304660
:10375000FFF7CEFE39460020FFF754FE3046FFF754
:10376000C7FE20212846FFF74DFE3046FFF7C0FE7A
:103770004FF400712846FFF745FE3046FFF7B8FECC
:1037800049464046FFF73EFE2046FFF7B1FE394668
:103790000020FFF737FE2046FFF7AAFE202128462B
:1037A000FFF730FE2046FFF7A3FE4FF400712846D6
:1037B000FFF728FE2046FFF79BFE49464046FFF7ED
:1037C00021FE2046FFF794FE39460020FFF71AFE3F
:1037D0002046FFF78DFE20212846FFF713FE2046E6
:1037E000FFF786FE4FF400712846FFF70BFE2046D8
:1037F000FFF77EFE8AE700BF84380000DFF854D070
:103800001549164A164B9A42BEBF51F8040B42F8AE
:10381000040BF8E71349144A144B9A42BEBF51F8FF
:10382000040B42F8040BF8E71149124A00209142B8
:10383000BCBF41F8040BFAE70F49104A002091423F
:10384000BCBF41F8040BFAE7FCF73EFEFFF738FF78
:1038500070470000007002208C3800000080FF1FBD
:103860000480FF1F9038000000000F2000000F2090
:103870000480FF1F1C82FF1F00000F2000000F208C
:04388000FEE700BFA0
:08388400010001000100000039
:04388C0000127A00AC
:04000003000037FDC5
:00000001FF
